:020000040000FA
:0400000007EF00F016
:0A0008007C82CDED0FF004EF16F03E
:10060000004465736C696761646F0043656E747262
:1006100069662E00456E7861677561720045737476
:1006200061646F3A0054656D706F3A004472656E94
:1006300061720041676974617200456E636865723A
:05064000002569000027
:10064600300EAE18D8B42AEF03F02CEF03F036EFD5
:1006560003F00001F451F511D8A434EF03F036EF9E
:1006660003F04BEF03F0819E819A819C8190000EEE
:10067600AD6E200E0001D76F010ED86F010ED96F37
:10068600060EDA6F5AEC14F01DEC16F06AEF05F060
:10069600310EAE18D8B452EF03F054EF03F060EF0A
:1006A60003F00001F405F511D8A45CEF03F05EEF4A
:1006B60003F07BEF03F060EF03F0200E0001D76F2D
:1006C600010ED86F3A0ED96F060EDA6F5AEC14F097
:1006D6008180818E818C010EAD6E010E0001F425A4
:1006E600F46F000EF521F56F1DEC16F06AEF05F0BC
:1006F600320EAE18D8B482EF03F084EF03F08FEF1A
:1007060003F0020E0001F419F511D8A48DEF03F0E1
:100716008FEF03F0C1EF03F082B694EF03F096EF8C
:1007260003F0C1EF03F0818A819E819C030E0001D4
:10073600EA6F8A0EE96F550EE82EFED7E92FFCD731
:10074600EA2FFAD700D0818E200E0001D76F010E56
:10075600D86F330ED96F060EDA6F5AEC14F0CAEC66
:1007660012F0020EAD6E010E0001F425F46F000EBC
:10077600F521F56F1DEC16F06AEF05F0330EAE1895
:10078600D8B4C8EF03F0CAEF03F0D5EF03F0030EB9
:100796000001F419F511D8A4D3EF03F0D5EF03F057
:1007A600FDEF03F0819A819E030E0001EA6F8A0E27
:1007B600E96F550EE82EFED7E92FFCD7EA2FFAD7B8
:1007C60000D0818C200E0001D76F010ED86F2C0E41
:1007D600D96F060EDA6F5AEC14F0030EAD6E010EE9
:1007E6000001F425F46F000EF521F56F1DEC16F0EF
:1007F6006AEF05F0340EAE18D8B404EF04F006EF35
:1008060004F011EF04F0040E0001F419F511D8A458
:100816000FEF04F011EF04F034EF04F082B016EF9E
:1008260004F018EF04F034EF04F0818A818E200E74
:100836000001D76F010ED86F0B0ED96F060EDA6F57
:100846005AEC14F0CAEC12F0040EAD6E010E000163
:10085600F425F46F000EF521F56F1DEC16F06AEF26
:1008660005F0350EAE18D8B43BEF04F03DEF04F0BA
:1008760048EF04F0050E0001F419F511D8A446EF6F
:1008860004F048EF04F072EF04F0819E819C819A97
:10089600030E0001EA6F8A0EE96F550EE82EFED7A9
:1008A600E92FFCD7EA2FFAD700D0818E818C200E53
:1008B6000001D76F010ED86F140ED96F060EDA6FCE
:1008C6005AEC14F0050EAD6E010E0001F425F46F1E
:1008D600000EF521F56F1DEC16F06AEF05F0360EE9
:1008E600AE18D8B479EF04F07BEF04F08DEF04F086
:1008F600060E0001F419F511D8A484EF04F086EF72
:1009060004F0B8EF04F082B68BEF04F08DEF04F03C
:10091600B8EF04F0819E819C030E0001EA6F8A0EF7
:10092600E96F550EE82EFED7E92FFCD7EA2FFAD746
:1009360000D0818E818A200E0001D76F010ED86FFC
:10094600330ED96F060EDA6F5AEC14F0CAEC12F0B9
:10095600060EAD6E010E0001F425F46F000EF521B2
:10096600F56F1DEC16F06AEF05F0370EAE18D8B429
:10097600BFEF04F0C1EF04F0CCEF04F0070E000166
:10098600F419F511D8A4CAEF04F0CCEF04F0F4EF93
:1009960004F0819E819A030E0001EA6F8A0EE96FC8
:1009A600550EE82EFED7E92FFCD7EA2FFAD700D04E
:1009B600818C200E0001D76F010ED86F2C0ED96FD7
:1009C600060EDA6F5AEC14F0070EAD6E010E00013A
:1009D600F425F46F000EF521F56F1DEC16F06AEFA5
:1009E60005F0380EAE18D8B4FBEF04F0FDEF04F0B6
:1009F6000FEF05F0080E0001F419F511D8A406EF63
:100A060005F008EF05F02BEF05F082B00DEF05F0CD
:100A16000FEF05F02BEF05F0818E818A200E000185
:100A2600D76F010ED86F0B0ED96F060EDA6F5AEC20
:100A360014F0CAEC12F0080EAD6E010E0001F4259A
:100A4600F46F000EF521F56F1DEC16F06AEF05F058
:100A5600390EAE18D8B432EF05F034EF05F03FEF9B
:100A660005F0090E0001F419F511D8A43DEF05F0C3
:100A76003FEF05F06AEF05F0819E819A819C000E9A
:100A86000001F56F000EF46F000EAD6E200ED76FED
:100A9600010ED86F010ED96F060EDA6F5AEC14F0FC
:100AA60081901DEC16F06AEF05F06AEF05F06AEF2B
:100AB60005F06AEF05F06AEF05F06AEF05F06AEFF8
:100AC60005F06AEF05F06AEF05F06AEF05F012002F
:100AD600300EAE18D8B472EF05F074EF05F07EEF65
:100AE60005F00001F451F511D8A47CEF05F07EEF76
:100AF60005F092EF05F0819E819A819C8190000E0F
:100B0600AD6E200E586E010E596E010E5A6E060E0F
:100B16005B6E89EC14F031EC16F09FEF07F0310EA6
:100B2600AE18D8B499EF05F09BEF05F0A7EF05F0E6
:100B36000001F405F511D8A4A3EF05F0A5EF05F023
:100B4600C1EF05F0A7EF05F0200E586E010E596EA5
:100B56003A0E5A6E060E5B6E89EC14F08180818E19
:100B6600818C010EAD6E010E0001F425F46F000EAE
:100B7600F521F56F31EC16F09FEF07F0320EAE1847
:100B8600D8B4C8EF05F0CAEF05F0D5EF05F0020EB0
:100B96000001F419F511D8A4D3EF05F0D5EF05F04F
:100BA60004EF06F082B6DAEF05F0DCEF05F004EFAD
:100BB60006F0818A819E819C030E6B6E8A0E6A6E98
:100BC600560EE82EFED76A2EFCD76B2EFAD7818EEC
:100BD600200E586E010E596E330E5A6E060E5B6E5F
:100BE60089EC14F011EC13F0020EAD6E010E00014B
:100BF600F425F46F000EF521F56F31EC16F09FEF3A
:100C060007F0330EAE18D8B40BEF06F00DEF06F072
:100C160018EF06F0030E0001F419F511D8A416EF2B
:100C260006F018EF06F03DEF06F0819A819E030E5E
:100C36006B6E8A0E6A6E560EE82EFED76A2EFCD7AB
:100C46006B2EFAD7818C200E586E010E596E2C0E23
:100C56005A6E060E5B6E89EC14F0030EAD6E010E35
:100C66000001F425F46F000EF521F56F31EC16F056
:100C76009FEF07F0340EAE18D8B444EF06F046EFF7
:100C860006F051EF06F0040E0001F419F511D8A490
:100C96004FEF06F051EF06F073EF06F082B056EF15
:100CA60006F058EF06F073EF06F0818A818E200E6B
:100CB600586E010E596E0B0E5A6E060E5B6E89EC5F
:100CC60014F011EC13F0040EAD6E010E0001F425C4
:100CD600F46F000EF521F56F31EC16F09FEF07F07B
:100CE600350EAE18D8B47AEF06F07CEF06F087EF33
:100CF60006F0050E0001F419F511D8A485EF06F0EB
:100D060087EF06F0AEEF06F0819E819C819A030E76
:100D16006B6E8A0E6A6E560EE82EFED76A2EFCD7CA
:100D26006B2EFAD7818E818C200E586E010E596E6D
:100D3600140E5A6E060E5B6E89EC14F0050EAD6E3F
:100D4600010E0001F425F46F000EF521F56F31EC6C
:100D560016F09FEF07F0360EAE18D8B4B5EF06F0D2
:100D6600B7EF06F0C9EF06F0060E0001F419F5110B
:100D7600D8A4C0EF06F0C2EF06F0F1EF06F082B697
:100D8600C7EF06F0C9EF06F0F1EF06F0819E819CF1
:100D9600030E6B6E8A0E6A6E560EE82EFED76A2E0C
:100DA600FCD76B2EFAD7818E818A200E586E010EE3
:100DB600596E330E5A6E060E5B6E89EC14F011EC0A
:100DC60013F0060EAD6E010E0001F425F46F000E51
:100DD600F521F56F31EC16F09FEF07F0370EAE18E0
:100DE600D8B4F8EF06F0FAEF06F005EF07F0070EB5
:100DF6000001F419F511D8A403EF07F005EF07F089
:100E06002AEF07F0819E819A030E6B6E8A0E6A6E38
:100E1600560EE82EFED76A2EFCD76B2EFAD7818C9B
:100E2600200E586E010E596E2C0E5A6E060E5B6E13
:100E360089EC14F0070EAD6E010E0001F425F46F77
:100E4600000EF521F56F31EC16F09FEF07F0380E26
:100E5600AE18D8B431EF07F033EF07F045EF07F0DF
:100E6600080E0001F419F511D8A43CEF07F03EEF87
:100E760007F060EF07F082B043EF07F045EF07F0A9
:100E860060EF07F0818E818A200E586E010E596E32
:100E96000B0E5A6E060E5B6E89EC14F011EC13F015
:100EA600080EAD6E010E0001F425F46F000EF5215B
:100EB600F56F31EC16F09FEF07F0390EAE18D8B487
:100EC60067EF07F069EF07F074EF07F0090E00010E
:100ED600F419F511D8A472EF07F074EF07F09FEF3D
:100EE60007F0819E819A819C000E0001F56F000E2D
:100EF600F46F000EAD6E200E586E010E596E010E87
:100F06005A6E060E5B6E89EC14F0819031EC16F089
:100F16009FEF07F09FEF07F09FEF07F09FEF07F0B7
:100F26009FEF07F09FEF07F09FEF07F09FEF07F0A7
:100F36009FEF07F09FEF07F012009DC0B5F09EC02F
:100F4600B6F09FC0B7F0A0C0B8F0A1C0B9F0A2C07B
:100F5600BAF0A3C0BBF0A4C0BCF00001BCBFB6EFA2
:100F660007F0B9EF07F0010EBAEF07F0000EB36F06
:100F7600B46BB351B411D8B4C3EF07F0C5EF07F0A3
:100F8600D7EF07F0BC1FBB1FBA1FB91FB81FB71F8B
:100F9600B61FB56D000EB623B723B823B923BA23FF
:100FA600BB23BC23D7EF07F0F1BFDCEF07F0DEEF82
:100FB60007F0E1EF07F0F293E1EF07F0F1BFEEEF94
:100FC60007F0F15106E1F005D8B0ECEF07F0EEEFCF
:100FD60007F0F4EF07F0000EB06F010EAF6FF8EFF9
:100FE60007F0F0C0AFF0F1C0B0F0EEC0B1F0EFC066
:100FF600B2F0B351B411D8A403EF08F005EF08F02E
:101006000EEF08F0F2A50AEF08F00CEF08F013EF68
:1010160008F00EEF08F0B107D8A0B20713EF08F0FA
:10102600000EBE6F1F0EBD6F000EBD25D96E010EE0
:10103600BE21DA6E000EDF6EA0EF08F0BD07D8A065
:10104600BE07000EBD25D96E010EBE21DA6EB5C0F3
:1010560080F0B6C081F0B7C082F0B8C083F0B9C0E6
:1010660084F0BAC085F0BBC086F0BCC087F00A0E1B
:10107600886F000E896F000E8A6F000E8B6F000E50
:101086008C6F000E8D6F000E8E6F000E8F6F40EC12
:101096000EF080C0A5F081C0A6F082C0A7F083C084
:1010A600A8F084C0A9F085C0AAF086C0ABF087C0BE
:1010B600ACF0A5C092F0A7C093F07DEC15F000014E
:1010C6009251300FDF6EAF07D8A0B007B107D8A096
:1010D600B207B5C080F0B6C081F0B7C082F0B8C024
:1010E60083F0B9C084F0BAC085F0BBC086F0BCC03E
:1010F60087F00A0E886F000E896F000E8A6F000E49
:101106008B6F000E8C6F000E8D6F000E8E6F000EB3
:101116008F6F8FEC0CF080C0B5F081C0B6F082C046
:10112600B7F083C0B8F084C0B9F085C0BAF086C005
:10113600BBF087C0BCF0A0EF08F00001BEBFACEF6B
:1011460008F0BE5108E1BD05D8A0ACEF08F0AEEF3F
:1011560008F0E4EF08F0B551B611B711B811B9119E
:10116600BA11BB11BC11D8A4BBEF08F0BDEF08F053
:1011760021EF08F0B0BFCAEF08F0B05106E1AF05A5
:10118600D8B0C8EF08F0CAEF08F021EF08F0B2BFF8
:10119600D5EF08F0B25108E1B105D8A0D5EF08F0B7
:1011A600D7EF08F0E4EF08F0F2B3DCEF08F0DEEF7B
:1011B60008F021EF08F0E4EF08F0E4EF08F0E4EFC0
:1011C60008F0B351B411D8A4EBEF08F0EDEF08F036
:1011D600F6EF08F0F2A5F2EF08F0F4EF08F018EFDA
:1011E60009F0F6EF08F0BD07D8A0BE07B351B41159
:1011F600D8A400EF09F002EF09F008EF09F0000E9D
:10120600AE6F2B0EAD6F0EEF09F0000EAE6F2D0E0A
:10121600AD6F0EEF09F0000EBD25D96E010EBE2191
:10122600DA6EADC0DFFF18EF09F09BC090F09CC0EE
:1012360091F0000EBD25926F010EBE21936FB1C0D5
:1012460094F0B2C095F0F2EC11F090C09BF091C012
:101256009CF02EEF09F012001EC036F01FC037F0CA
:1012660020C038F021C039F022C03AF023C03BF04C
:1012760024C03CF025C03DF03DBE44EF09F047EFE9
:1012860009F0010E48EF09F0000E346E356A34504D
:101296003510D8B451EF09F053EF09F065EF09F0B6
:1012A6003D1E3C1E3B1E3A1E391E381E371E366C2E
:1012B600000E3722382239223A223B223C223D2296
:1012C60065EF09F00001F1BF6BEF09F06DEF09F072
:1012D60070EF09F0F29370EF09F0F1BF7DEF09F0BE
:1012E600F15106E1F005D8B07BEF09F07DEF09F08A
:1012F60083EF09F0000E316E010E306E87EF09F0B4
:10130600F0C030F0F1C031F0EEC032F0EFC033F093
:1013160034503510D8A492EF09F094EF09F09DEF00
:1013260009F0F2A599EF09F09BEF09F0A2EF09F099
:101336009DEF09F03206D8A03306A2EF09F0000EA1
:101346003F6E1F0E3E6E000E3E24D96E010E3F20EC
:10135600DA6E000EDF6E2EEF0AF03E06D8A03F06CC
:10136600000E3E24D96E010E3F20DA6E36C001F023
:1013760037C002F038C003F039C004F03AC005F0B7
:101386003BC006F03CC007F03DC008F00A0E096EEF
:10139600000E0A6E000E0B6E000E0C6E000E0D6E29
:1013A600000E0E6E000E0F6E000E106E07EC0FF0A4
:1013B60001C026F002C027F003C028F004C029F0BF
:1013C60005C02AF006C02BF007C02CF008C02DF08F
:1013D60026C013F028C014F0A0EC15F01350300FFF
:1013E600DF6E3006D8A031063206D8A0330636C0E6
:1013F60001F037C002F038C003F039C004F03AC03B
:1014060005F03BC006F03CC007F03DC008F00A0EF0
:10141600096E000E0A6E000E0B6E000E0C6E000EAC
:101426000D6E000E0E6E000E0F6E000E106E68EC46
:101436000DF001C036F002C037F003C038F004C02A
:1014460039F005C03AF006C03BF007C03CF008C0D2
:101456003DF02EEF0AF03FBE39EF0AF03F5008E1AB
:101466003E04D8A039EF0AF03BEF0AF072EF0AF01B
:1014760036503710381039103A103B103C103D10DA
:10148600D8A448EF0AF04AEF0AF0B0EF09F031BEEF
:1014960057EF0AF0315006E13004D8B055EF0AF0A4
:1014A60057EF0AF0B0EF09F033BE62EF0AF033509F
:1014B60008E13204D8A062EF0AF064EF0AF072EF96
:1014C6000AF00001F2B36AEF0AF06CEF0AF0B0EF2F
:1014D60009F072EF0AF072EF0AF072EF0AF0345078
:1014E6003510D8A479EF0AF07BEF0AF085EF0AF001
:1014F6000001F2A581EF0AF083EF0AF0A7EF0AF0E8
:1015060085EF0AF03E06D8A03F0634503510D8A421
:101516008FEF0AF091EF0AF097EF0AF0000E2F6EA8
:101526002B0E2E6E9DEF0AF0000E2F6E2D0E2E6ED8
:101536009DEF0AF0000E3E24D96E010E3F20DA6EB2
:101546002EC0DFFFA7EF0AF01CC011F01DC012F07D
:10155600000E3E24136E010E3F20146E32C015F0AD
:1015660033C016F05FEC12F011C01CF012C01DF073
:10157600BDEF0AF01200C1C0D9FFC2C0DAFFDECF4C
:10158600F6FFDDCFF7FF0800F550250AD8A4CEEF09
:101596000AF0D0EF0AF087EF0BF0C1C0D9FFC2C046
:1015A600DAFFDE2A000EDD22000E0001EF6F000ECC
:1015B600EE6FEEC0F2F0EFC0F3F0F069F169C1C072
:1015C600D9FFC2C0DAFFDECFF6FFDDCFF7FF080096
:1015D600F550640AD8B4F2EF0AF0F4EF0AF008EF17
:1015E6000BF0C1C0D9FFC2C0DAFFDECFF6FFDDCFF8
:1015F600F7FF0800F550690AD8A404EF0BF006EFD0
:101606000BF04AEF0BF008EF0BF0C1C0D9FFC2C0D8
:10161600DAFFDE2A000EDD22C3C0D9FFC4C0DAFF1E
:10162600DFCFC5F0020EDE26DFCFC6F0000EDD22CC
:10163600C5C0D9FFC6C0DAFFDECFC7F0DDCFC8F020
:10164600000EC8BFFF0EC96FCA6FCB6FCC6FCD6FD0
:10165600CE6FBFC09BF0C0C09CF0C7C09DF0C8C095
:101666009EF0C9C09FF0CAC0A0F0CBC0A1F0CCC00C
:10167600A2F0CDC0A3F0CEC0A4F0A0EC07F09BC0B2
:10168600BFF09CC0C0F0A8EF0BF0A8EF0BF0C1C0F4
:10169600D9FFC2C0DAFFDECFF6FFDDCFF7FF0800C5
:1016A600F550250AD8A45AEF0BF05CEF0BF077EF54
:1016B6000BF0C1C0D9FFC2C0DAFFDE2A000EDD2260
:1016C600000E0001816F250E806FBFC082F0C0C082
:1016D60083F012EC11F0000E0001C06F010EBF6F17
:1016E600A8EF0BF0A8EF0BF0C1C0D9FFC2C0DAFF1C
:1016F600DE2A000EDD22000E0001C06F000EBF6F55
:10170600A8EF0BF0A8EF0BF0C1C0D9FFC2C0DAFFFB
:10171600DECFF6FFDDCFF7FF0800F5500001806F42
:10172600816BBFC082F0C0C083F012EC11F0C1C063
:10173600D9FFC2C0DAFFDE2A000EDD22000E00014C
:10174600C06F010EBF6FA8EF0BF0120042C0D9FFA9
:1017560043C0DAFFDECFF6FFDDCFF7FF0800F55016
:10176600250AD8A4B9EF0BF0BBEF0BF06FEF0CF026
:1017760042C0D9FF43C0DAFFDE2A000EDD22000E8A
:101786000001EF6F000EEE6FEEC0F2F0EFC0F3F067
:10179600F069F16942C0D9FF43C0DAFFDECFF6FF38
:1017A600DDCFF7FF0800F550640AD8B4DDEF0BF083
:1017B600DFEF0BF0F3EF0BF042C0D9FF43C0DAFFC7
:1017C600DECFF6FFDDCFF7FF0800F550690AD8A493
:1017D600EFEF0BF0F1EF0BF035EF0CF0F3EF0BF052
:1017E60042C0D9FF43C0DAFFDE2A000EDD2244C024
:1017F600D9FF45C0DAFFDFCF46F0020EDE26DFCF87
:1018060047F0000EDD2246C0D9FF47C0DAFFDECF23
:1018160048F0DDCF49F0000E49BEFF0E4A6E4B6E12
:101826004C6E4D6E4E6E4F6E40C01CF041C01DF0AA
:1018360048C01EF049C01FF04AC020F04BC021F03E
:101846004CC022F04DC023F04EC024F04FC025F00E
:101856002FEC09F01CC040F01DC041F08EEF0CF0DB
:101866008EEF0CF042C0D9FF43C0DAFFDECFF6FFA1
:10187600DDCFF7FF0800F550250AD8A445EF0CF098
:1018860047EF0CF060EF0CF042C0D9FF43C0DAFF1F
:10189600DE2A000EDD22000E026E250E016E40C00D
:1018A60003F041C004F083EC11F0000E416E010E0E
:1018B600406E8EEF0CF08EEF0CF042C0D9FF43C0A5
:1018C600DAFFDE2A000EDD22000E416E000E406EAB
:1018D6008EEF0CF08EEF0CF042C0D9FF43C0DAFF5A
:1018E600DECFF6FFDDCFF7FF0800F550016E026A86
:1018F60040C003F041C004F083EC11F042C0D9FFB0
:1019060043C0DAFFDE2A000EDD22000E416E010E14
:10191600406E8EEF0CF01200000E0001916F8FBF2B
:1019260099EF0CF097EF0CF0ADEF0CF08F1F8E1FB8
:101936008D1F8C1F8B1F8A1F891F886D000E8923A0
:101946008A238B238C238D238E238F23010E916F65
:10195600ADEF0CF087BFB4EF0CF0B2EF0CF0C8EFB0
:101966000CF0871F861F851F841F831F821F811F00
:10197600806D000E8123822383238423852386237F
:101986008723010E911BC8EF0CF020EE92F0070E94
:10199600DE6AE806FDE2885189118A118B118C11E5
:1019A6008D118E118F11D8B4DBEF0CF0DDEF0CF03A
:1019B6003BEF0DF0010E906FEDEF0CF0D8908837ED
:1019C60089378A378B378C378D378E378F37902B01
:1019D600EDEF0CF08FAFF2EF0CF0F4EF0CF0E1EF5F
:1019E6000CF0F8EF0CF0F8EF0CF0D8909237933734
:1019F6009437953796379737983799378851805D5A
:101A0600895181598A5182598B5183598C518459F4
:101A16008D5185598E5186598F518759D8A016EF09
:101A26000DF018EF0DF02BEF0DF08851805F895106
:101A3600815B8A51825B8B51835B8C51845B8D51B8
:101A4600855B8E51865B8F51875B92812BEF0DF004
:101A5600D8908F338E338D338C338B338A338933DF
:101A66008833902FF8EF0CF03BEF0DF03BEF0DF0C5
:101A76009151D8B441EF0DF043EF0DF055EF0DF055
:101A8600991F981F971F961F951F941F931F926D5E
:101A9600000E932394239523962397239823992323
:101AA60055EF0DF092C080F093C081F094C082F0A3
:101AB60095C083F096C084F097C085F098C086F0F4
:101AC60099C087F067EF0DF01200000E126E10BE7F
:101AD60071EF0DF06FEF0DF085EF0DF0101E0F1E7C
:101AE6000E1E0D1E0C1E0B1E0A1E096C000E0A226F
:101AF6000B220C220D220E220F221022010E126E34
:101B060085EF0DF008BE8CEF0DF08AEF0DF0A0EF1B
:101B16000DF0081E071E061E051E041E031E021ECD
:101B2600016C000E0222032204220522062207224D
:101B36000822010E121AA0EF0DF020EE13F0070E88
:101B4600DE6AE806FDE209500A100B100C100D10B3
:101B56000E100F101010D8B4B3EF0DF0B5EF0DF056
:101B660013EF0EF0010E116EC5EF0DF0D890093689
:101B76000A360B360C360D360E360F361036112A4F
:101B8600C5EF0DF010AECAEF0DF0CCEF0DF0B9EFCA
:101B96000DF0D0EF0DF0D0EF0DF0D89013361436CF
:101BA600153616361736183619361A360950015CA8
:101BB6000A5002580B5003580C5004580D50055843
:101BC6000E5006580F50075810500858D8A0EEEF80
:101BD6000DF0F0EF0DF003EF0EF00950015E0A5024
:101BE600025A0B50035A0C50045A0D50055A0E5007
:101BF600065A0F50075A1050085A138003EF0EF07A
:101C0600D89010320F320E320D320C320B320A32AD
:101C16000932112ED0EF0DF013EF0EF013EF0EF088
:101C26001250D8B419EF0EF01BEF0EF02DEF0EF098
:101C36001A1E191E181E171E161E151E141E136CAC
:101C4600000E1422152216221722182219221A22F1
:101C56002DEF0EF013C001F014C002F015C003F012
:101C660016C004F017C005F018C006F019C007F03A
:101C76001AC008F03FEF0EF01200000E0001916F3F
:101C860087BF4AEF0EF048EF0EF05EEF0EF0871FAB
:101C9600861F851F841F831F821F811F806D000E74
:101CA6008123822383238423852386238723010E8E
:101CB600916F5EEF0EF08FBF65EF0EF063EF0EF0E3
:101CC60077EF0EF08F1F8E1F8D1F8C1F8B1F8A1FA5
:101CD600891F886D000E89238A238B238C238D23ED
:101CE6008E238F2377EF0EF0885189118A118B117D
:101CF6008C118D118E118F11D8B484EF0EF086EFF2
:101D06000EF0DAEF0EF0010E906F96EF0EF0D8900F
:101D1600883789378A378B378C378D378E378F37A9
:101D2600902B96EF0EF08FAF9BEF0EF09DEF0EF01F
:101D36008AEF0EF0A1EF0EF0A1EF0EF08851805D54
:101D4600895181598A5182598B5183598C518459B1
:101D56008D5185598E5186598F518759D8A0B6EF26
:101D66000EF0B8EF0EF0CAEF0EF08851805F895181
:101D7600815B8A51825B8B51835B8C51845B8D5175
:101D8600855B8E51865B8F51875BCAEF0EF0D890CC
:101D96008F338E338D338C338B338A338933883349
:101DA600902FA1EF0EF0DAEF0EF0DAEF0EF0915170
:101DB600D8B4E0EF0EF0E2EF0EF0F4EF0EF0871F6E
:101DC600861F851F841F831F821F811F806D000E43
:101DD6008123822383238423852386238723F4EF89
:101DE6000EF080C080F081C081F082C082F083C096
:101DF60083F084C084F085C085F086C086F087C0F5
:101E060087F006EF0FF01200000E126E08BE10EFFC
:101E16000FF00EEF0FF024EF0FF0081E071E061E40
:101E2600051E041E031E021E016C000E0222032262
:101E360004220522062207220822010E126E24EF32
:101E46000FF010BE2BEF0FF029EF0FF03DEF0FF064
:101E5600101E0F1E0E1E0D1E0C1E0B1E0A1E096CDA
:101E6600000E0A220B220C220D220E220F22102215
:101E76003DEF0FF009500A100B100C100D100E104C
:101E86000F101010D8B44AEF0FF04CEF0FF0A0EF80
:101E96000FF0010E116E5CEF0FF0D89009360A367E
:101EA6000B360C360D360E360F361036112A5CEF11
:101EB6000FF010AE61EF0FF063EF0FF050EF0FF081
:101EC60067EF0FF067EF0FF00950015C0A500258F8
:101ED6000B5003580C5004580D5005580E50065818
:101EE6000F50075810500858D8A07CEF0FF07EEF1F
:101EF6000FF090EF0FF00950015E0A50025A0B5096
:101F0600035A0C50045A0D50055A0E50065A0F50DB
:101F1600075A1050085A90EF0FF0D89010320F322F
:101F26000E320D320C320B320A320932112E67EFA5
:101F36000FF0A0EF0FF0A0EF0FF01250D8B4A6EFFD
:101F46000FF0A8EF0FF0BAEF0FF0081E071E061EDF
:101F5600051E041E031E021E016C000E0222032231
:101F660004220522062207220822BAEF0FF001C03A
:101F760001F002C002F003C003F004C004F005C083
:101F860005F006C006F007C007F008C008F0CCEF61
:101F96000FF012000600E1CF6CF0E2CF6DF0D9CF62
:101FA6006EF0DACF6FF0F6CF70F0F7CF71F0F8CFB2
:101FB60072F0F5CF73F09EAAE3EF0FF0E5EF0FF0A6
:101FC60060EF10F09E9A540EAE18D8A4EDEF0FF005
:101FD600EFEF0FF002EF10F0F5EF0FF0F5EF0FF067
:101FE600F5EF0FF0540EAE18D8B4FCEF0FF0FEEF7D
:101FF6000FF0F5EF0FF060EF10F060EF10F0510EFC
:10200600AE18D8A409EF10F00BEF10F00FEF10F098
:102016006BEC05F060EF10F0430EAE18D8A416EF87
:1020260010F018EF10F01CEF10F06BEC05F060EFFD
:1020360010F04C0EAE18D8A423EF10F025EF10F0D8
:102046002EEF10F0000E0001F56F010EF46F6BEC31
:1020560005F060EF10F0440EAE18D8A435EF10F07E
:1020660037EF10F040EF10F0000E0001F56F090E8B
:10207600F46F6BEC05F060EF10F0410EAE18D8A4CB
:1020860047EF10F049EF10F060EF10F0010E00017D
:10209600F425F46F000EF521F56F6BEC05F060EF9B
:1020A60010F060EF10F060EF10F060EF10F060EFEE
:1020B60010F060EF10F060EF10F073C0F5FF72C023
:1020C600F8FF71C0F7FF70C0F6FF6FC0DAFF6EC091
:1020D600D9FF6DC0E2FF6CC0E1FF7C921100C2EC3B
:1020E60015F055EC13F0000E816E000E836E000E97
:1020F600846E000ED76E060ED66E23EC03F084EFC8
:1021060010F082B289EF10F08BEF10F0C3EF10F0F1
:10211600070E0001EB6F7D0EE82EFED7EB2FFCD7E6
:1021260082B298EF10F09AEF10F0C3EF10F09EEF26
:1021360010F09EEF10F082A2A3EF10F0A5EF10F0C2
:102146009EEF10F0A7EF10F00001F451F511D8A49E
:10215600AFEF10F0B1EF10F0B7EF10F0000EF56F23
:10216600010EF46FBDEF10F0000EF56F000EF46F68
:10217600BDEF10F023EC03F0C3EF10F0C3EF10F047
:1021860082B4C8EF10F0CAEF10F0FEEF10F0070EA1
:102196000001EB6F7D0EE82EFED7EB2FFCD782B445
:1021A600D7EF10F0D9EF10F0FEEF10F0DDEF10F0E2
:1021B600DDEF10F082A4E2EF10F0E4EF10F0DDEFB7
:1021C60010F0E6EF10F00001F451F511D8B4EEEF7F
:1021D60010F0F0EF10F0F8EF10F0010EF425F46FA8
:1021E600000EF521F56FF8EF10F023EC03F0FEEF8B
:1021F60010F0FEEF10F00001F451F511D8B406EF1F
:1022060011F008EF11F084EF10F023EC03F084EFE7
:1022160010F084EF10F084EF10F007EF00F00001EB
:1022260082518311D8B41AEF11F01CEF11F027EF89
:1022360011F082518311D8A423EF11F025EF11F08C
:102246002CEF11F027EF11F0805182EC16F082EF9F
:1022560011F0000120EE04F08251D9268351DA22D2
:10226600DE50DE10D8B43AEF11F03CEF11F059EF22
:1022760011F020EE04F08251D9268351DA2210EEB5
:1022860002F08251E1268351E222DE50E65CE650FE
:10229600800A886FDE50800A8859D8B055EF11F051
:1022A60057EF11F082EF11F059EF11F020EE02F026
:1022B6008251D9268351DA22DECF84F0DDCF85F034
:1022C60082C0D9FF83C0DAFFDECF86F0DDCF87F08C
:1022D60084518625D96E85518721DA6E80C0DFFF4D
:1022E60020EE02F08251D9268351DA22DE2A000E30
:1022F600DD2282EF11F082EF11F082EF11F0120071
:1023060003500410D8B48AEF11F08CEF11F097EF58
:1023160011F003500410D8A493EF11F095EF11F0CB
:102326009CEF11F097EF11F0015083EC16F0F1EFEE
:1023360011F020EE04F00350D9260450DA22DE50C4
:10234600DE10D8B4A9EF11F0ABEF11F0C8EF11F021
:1023560020EE04F00350D9260450DA2210EE02F0E3
:102366000350E1260450E222DE50E65CE650800A85
:10237600096EDE50800A0958D8B0C4EF11F0C6EFD6
:1023860011F0F1EF11F0C8EF11F020EE02F003505A
:10239600D9260450DA22DECF05F0DDCF06F003C0E1
:1023A600D9FF04C0DAFFDECF07F0DDCF08F0055015
:1023B6000724D96E06500820DA6E01C0DFFF20EE32
:1023C60002F00350D9260450DA22DE2A000EDD225E
:1023D600F1EF11F0F1EF11F0F1EF11F01200000141
:1023E600F2A1F8EF11F0FAEF11F006EF12F092C039
:1023F60089F093C08AF090C08BF091C08CF00AEC03
:1024060015F006EF12F0000195BF0CEF12F00EEF7B
:1024160012F014EF12F094C099F095C09AF018EFEC
:1024260012F0000E9A6F000E996F000E986F000E54
:10243600976F2DEF12F0000E816F200E806F90C007
:1024460082F091C083F012EC11F00001974B982BAB
:102456002DEF12F09951975D9851800A966F9A5117
:10246600800A9659D8A03AEF12F03CEF12F01EEF10
:1024760012F0F2B141EF12F043EF12F04FEF12F00B
:1024860092C089F093C08AF090C08BF091C08CF016
:102496000AEC15F04FEF12F092C080F093C081F075
:1024A600B6EC14F0000199518025906F9A51812164
:1024B600916F5EEF12F012000001F2A165EF12F0CB
:1024C60067EF12F073EF12F013C00AF014C00BF0AE
:1024D60011C00CF012C00DF032EC15F073EF12F0D3
:1024E60016BE78EF12F07AEF12F080EF12F015C0F8
:1024F6001AF016C01BF084EF12F0000E1B6E000ED1
:102506001A6E000E196E000E186E98EF12F0000E7D
:10251600026E200E016E11C003F012C004F083ECAF
:1025260011F0184A192A98EF12F01A50185C19502F
:10253600800A176E1B50800A1758D8A0A5EF12F014
:10254600A7EF12F08AEF12F00001F2B1ADEF12F030
:10255600AFEF12F0BBEF12F013C00AF014C00BF08D
:1025660011C00CF012C00DF032EC15F0BBEF12F0FA
:1025760013C001F014C002F0E1EC14F01A5001246B
:10258600116E1B500220126EC9EF12F01200000EDF
:102596000001F76F050EF66FF7BFD6EF12F0D4EF16
:1025A60012F0DAEF12F010EF13F010EF13F0F4510F
:1025B600F511D8B4E1EF12F0E3EF12F003EF13F0E8
:1025C600060E0001E86F130EE76FAD0EE82EFED77C
:1025D600E72FFCD7E82FFAD700D0F80E0001D76F07
:1025E600000ED86F410ED96F060EDA6FF6C0DBF01B
:1025F600F7C0DCF05AEC14F058EC15F003EF13F0CA
:102606000001F607D8A0F707F7BF0EEF13F00CEF9F
:1026160013F0DAEF12F010EF13F01200000E0001C3
:10262600F76F050EF66FF7BF1DEF13F01BEF13F0F4
:1026360021EF13F054EF13F054EF13F0F451F511AA
:10264600D8B428EF13F02AEF13F047EF13F0060E75
:10265600696E130E686EAE0EE82EFED7682EFCD796
:10266600692EFAD7F80E586E000E596E410E5A6E44
:10267600060E5B6EF6C05CF0F7C05DF089EC14F0F8
:10268600E3EC15F047EF13F00001F607D8A0F707C3
:10269600F7BF52EF13F050EF13F021EF13F054EFA2
:1026A60013F01200030E0001836F8D908D92140EAD
:1026B6000001826F790EE82EFED7822FFCD700D05C
:1026C60083C083FF8D828D92070E0001826F7D0E7F
:1026D600E82EFED7822FFCD78D828D92420EE82EF1
:1026E600FED700D08D828D92420EE82EFED700D006
:1026F600020E836E8D828D92380E5DEC16F0060EFC
:102706005DEC16F00C0E5DEC16F043EC16F01200C4
:102716008D80A5EF13F081C0F6FF82C0F7FFF86A3F
:10272600050EF76403D00800F55005D0F6CFE1FF9B
:10273600F7CFE2FFE7505DEC16F00001814B822BEC
:10274600A5EF13F081C0F6FF82C0F7FFF86A050E09
:10275600F76403D00800F55005D0F6CFE1FFF7CFB8
:10276600E2FFE7500009D8A4BBEF13F0BDEF13F06A
:102776008EEF13F0BFEF13F012008D80D9EF13F038
:1027860002C0F6FF03C0F7FFF86A050EF76403D030
:102796000800F55005D0F6CFE1FFF7CFE2FFE7508E
:1027A60068EC16F0024A032AD9EF13F002C0F6FFCE
:1027B60003C0F7FFF86A050EF76403D00800F5506A
:1027C60005D0F6CFE1FFF7CFE2FFE7500009D8A426
:1027D600EFEF13F0F1EF13F0C3EF13F0F3EF13F095
:1027E6001200D1C0D5F0D2C0D6F0000E0001ED6FB8
:1027F600000EEC6F14EF14F0CFC0BFF0D0C0C0F0E5
:10280600D50EC16F000EC26FD3C0C3F0D4C0C4F0E2
:10281600BEEC0AF00001BF51EC27C051ED2314EFC6
:1028260014F0D5C0F6FFD6C0F7FF0800F550000932
:10283600D8A420EF14F022EF14F0FFEF13F0ECC051
:10284600CFF0EDC0D0F0120052C056F053C057F092
:10285600000E0001ED6F000EEC6F47EF14F050C054
:1028660040F051C041F0560E426E000E436E54C009
:1028760044F055C045F0A9EC0BF040500001EC27A0
:102886004150ED2347EF14F056C0F6FF57C0F7FF4F
:102896000800F5500009D8A453EF14F055EF14F0D2
:1028A60032EF14F0ECC050F0EDC051F01200DB0E28
:1028B6000001DF6F000EE06FD7C0E1F0D8C0E2F094
:1028C600000EE46F000EE36F000EE66F000EE56F7C
:1028D600E10ECF6F000ED06FD9C0D1F0DAC0D2F0C2
:1028E600DF0ED36F000ED46FF4EC13F0CFC0DDF023
:1028F600D0C0DEF00001E351D725D96EE451D821CE
:10290600DA6E000EDF6E88EF14F012005C0E606E59
:10291600000E616E58C062F059C063F0000E656E1D
:10292600000E646E000E676E000E666E620E506ECE
:10293600000E516E5AC052F05BC053F0600E546EDA
:10294600000E556E27EC14F050C05EF051C05FF0DB
:1029560064505824D96E65505920DA6E000EDF6E29
:10296600B5EF14F0120080C084F081C085F0C1EF8D
:1029760014F00001804B812BC1EF14F080C0D9FF09
:1029860081C0DAFFDF50D8A4CBEF14F0CDEF14F0FE
:10299600BCEF14F0CFEF14F084C082F085C083F052
:1029A6000001821F831F824B832B80518225806FFB
:1029B60081518321816FE0EF14F0120001C005F010
:1029C60002C006F0EBEF14F0014A022AEBEF14F016
:1029D60001C0D9FF02C0DAFFDF50D8A4F5EF14F02A
:1029E600F7EF14F0E7EF14F0F9EF14F005C003F079
:1029F60006C004F0031E041E034A042A01500324E1
:102A0600016E02500420026E09EF15F01200000E4E
:102A160000018F6F000E8E6F1FEF15F08DC080F0D6
:102A2600816B8BC082F08CC083F012EC11F0000138
:102A36008E4B8F2B1FEF15F08E518925D96E8F5136
:102A46008A21DA6EDF508D6F8D51D8A42DEF15F0E7
:102A56002FEF15F011EF15F031EF15F01200000E03
:102A6600106E000E0F6E45EF15F00EC001F0026AF3
:102A76000CC003F00DC004F083EC11F00F4A102ACD
:102A860045EF15F00F500A24D96E10500B20DA6E60
:102A9600DF500E6E0E50D8A453EF15F055EF15F01B
:102AA60038EF15F057EF15F0120043EC16F0000E54
:102AB60072EC16F01D0E0001816F060E826F8BEC14
:102AC60013F0200E0001816F010E826F8BEC13F064
:102AD600280E72EC16F0250E0001816F060E826F2D
:102AE6008BEC13F0F80E0001816F000E826F8BECF9
:102AF60013F01200000193BF8BEF15F0935106E11E
:102B06009205D8B089EF15F08BEF15F099EF15F017
:102B160092C094F093C095F0941F951F944B952BFB
:102B260094C092F095C093F09FEF15F092C092F08A
:102B360093C093F09FEF15F0120014BEADEF15F0A1
:102B4600145006E11304D8B0ABEF15F0ADEF15F055
:102B5600BBEF15F013C015F014C016F0151E161EA7
:102B6600154A162A15C013F016C014F0C1EF15F059
:102B760013C013F014C014F0C1EF15F01200DF0EED
:102B8600926E000E936E9468000E956E0C0E966E05
:102B9600630ED36ED08EC00EF26EC30ED56E010ECE
:102BA600C26E0E0EC16E940EC06E240EAC6E900EEA
:102BB600AB6E000EB86E190EAF6E9D8A9F8A12001C
:102BC60051EC16F0000E7BEC16F01D0E026E060E92
:102BD600036EC0EC13F0200E026E010E036EC0EC05
:102BE60013F0280E7BEC16F0250E026E060E036E11
:102BF600C0EC13F0F80E026E000E036EC0EC13F07C
:102C0600120001EE00F02F0EEE6AE806FDE100EE7E
:102C1600ECF0110EEE6AE806FDE100EE74F0080E27
:102C2600EE6AE806FDE17C907C92000EF86E0001EB
:102C360072EF10F043EC16F0000E72EC16F01D0E5B
:102C46000001816F060E826F8BEC13F0200E0001DF
:102C5600816F010E826F8BEC13F0120051EC16F0AF
:102C6600000E7BEC16F01D0E026E060E036EC0EC17
:102C760013F0200E026E010E036EC0EC13F012006C
:102C86008D90010E5DEC16F0030E0001816F970E1C
:102C9600E82EFED7812FFCD700D012008D90010EB2
:102CA60068EC16F0030E026E980EE82EFED7022E82
:102CB600FCD712000001806FC80E00D0E82EFDD7A9
:102CC60080C083FF8D828D921200016EC80E00D0E7
:102CD600E82EFDD701C083FF8D828D921200000180
:102CE600816F8D9000018151800F5DEC16F012000E
:102CF600026E8D900250800F68EC16F012001200E2
:022D06001200B9
:020000040020DA
:08000000FFFFFFFFFFFFFFFF00
:020000040030CA
:0E000000FF081F1EFF8181FF0FC00FE00F40A1
:00000001FF
