:020000040000FA
:0400000007EF00F016
:0A0008007C820FED0FF046EF15F0BB
:10060000004465736C696761646F0043656E747262
:1006100069662E00456E7861677561720045737476
:1006200061646F3A0054656D706F3A004472656E94
:1006300061720041676974617200456E636865723A
:05064000002569000027
:100646000001F451F511D8A42BEF03F02DEF03F0C0
:1006560041EF03F0819E819A819C8190000EAD6EE0
:10066600200ED76F010ED86F010ED96F060EDA6F06
:100676009CEC13F05FEC15F009EF05F00001F405B2
:10068600F511D8A449EF03F04BEF03F065EF03F043
:10069600200ED76F010ED86F3A0ED96F060EDA6F9D
:1006A6009CEC13F08180818E818C010EAD6E010E63
:1006B6000001F425F46F000EF521F56F5FEC15F0DF
:1006C60009EF05F0020E0001F419F511D8A46EEF3A
:1006D60003F070EF03F0A2EF03F082B675EF03F0BC
:1006E60077EF03F0A2EF03F0818A819E819C030ECF
:1006F6000001EA6F8A0EE96F550EE82EFED7E92F44
:10070600FCD7EA2FFAD700D0818E200E0001D76FD2
:10071600010ED86F330ED96F060EDA6F9CEC13F00C
:100726000CEC12F0020EAD6E010E0001F425F46F12
:10073600000EF521F56F5FEC15F009EF05F0030EDD
:100746000001F419F511D8A4ABEF03F0ADEF03F0F7
:10075600D5EF03F0819A819E030E0001EA6F8A0E9F
:10076600E96F550EE82EFED7E92FFCD7EA2FFAD708
:1007760000D0818C200E0001D76F010ED86F2C0E91
:10078600D96F060EDA6F9CEC13F0030EAD6E010EF8
:100796000001F425F46F000EF521F56F5FEC15F0FE
:1007A60009EF05F0040E0001F419F511D8A4DEEFE7
:1007B60003F0E0EF03F002EF04F082B0E5EF03F0A0
:1007C600E7EF03F002EF04F0818A818E200ED76FE7
:1007D600010ED86F0B0ED96F060EDA6F9CEC13F074
:1007E6000CEC12F0040EAD6E010E0001F425F46F50
:1007F600000EF521F56F5FEC15F009EF05F0050E1B
:100806000001F419F511D8A40BEF04F00DEF04F074
:1008160037EF04F0819E819C819A030E0001EA6FF6
:100826008A0EE96F550EE82EFED7E92FFCD7EA2F80
:10083600FAD700D0818E818C200E0001D76F010E71
:10084600D86F140ED96F060EDA6F9CEC13F0050EF6
:10085600AD6E010E0001F425F46F000EF521F56F63
:100866005FEC15F009EF05F0060E0001F419F5111D
:10087600D8A440EF04F042EF04F074EF04F082B61F
:1008860047EF04F049EF04F074EF04F0819E819C79
:10089600030E0001EA6F8A0EE96F550EE82EFED7A9
:1008A600E92FFCD7EA2FFAD700D0818E818A200E55
:1008B6000001D76F010ED86F330ED96F060EDA6FAF
:1008C6009CEC13F00CEC12F0060EAD6E010E00015E
:1008D600F425F46F000EF521F56F5FEC15F009EFC6
:1008E60005F0070E0001F419F511D8A47DEF04F008
:1008F6007FEF04F0A7EF04F0819E819A030E0001BA
:10090600EA6F8A0EE96F550EE82EFED7E92FFCD75F
:10091600EA2FFAD700D0818C200E0001D76F010E86
:10092600D86F2C0ED96F060EDA6F9CEC13F0070EFB
:10093600AD6E010E0001F425F46F000EF521F56F82
:100946005FEC15F009EF05F0080E0001F419F5113A
:10095600D8A4B0EF04F0B2EF04F0D4EF04F082B004
:10096600B7EF04F0B9EF04F0D4EF04F0818E818A7A
:10097600200ED76F010ED86F0B0ED96F060EDA6FE9
:100986009CEC13F00CEC12F0080EAD6E010E00019B
:10099600F425F46F000EF521F56F5FEC15F009EF05
:1009A60005F0090E0001F419F511D8A4DDEF04F0E5
:1009B600DFEF04F009EF05F0819E819A819C81901A
:1009C600000EF56F000EF46F000EAD6E200ED76FA1
:1009D600010ED86F010ED96F060EDA6F9CEC13F07C
:1009E6005FEC15F009EF05F009EF05F009EF05F0EA
:1009F60009EF05F009EF05F009EF05F009EF05F03D
:100A060009EF05F009EF05F009EF05F01200000106
:100A1600F451F511D8A412EF05F014EF05F028EF04
:100A260005F0819E819A819C8190000EAD6E200E0C
:100A3600586E010E596E010E5A6E060E5B6ECBECA9
:100A460013F073EC15F0E1EF06F00001F405F51173
:100A5600D8A430EF05F032EF05F04CEF05F0200E8C
:100A6600586E010E596E3A0E5A6E060E5B6ECBEC40
:100A760013F08180818E818C010EAD6E010E000116
:100A8600F425F46F000EF521F56F73EC15F0E1EF28
:100A960006F0020E0001F419F511D8A455EF05F081
:100AA60057EF05F086EF05F082B65CEF05F05EEFD6
:100AB60005F086EF05F0818A819E819C030E6B6EA0
:100AC6008A0E6A6E560EE82EFED76A2EFCD76B2E5D
:100AD600FAD7818E200E586E010E596E330E5A6E5D
:100AE600060E5B6ECBEC13F053EC12F0020EAD6EFD
:100AF600010E0001F425F46F000EF521F56F73EC7D
:100B060015F0E1EF06F0030E0001F419F511D8A473
:100B16008FEF05F091EF05F0B6EF05F0819A819E13
:100B2600030E6B6E8A0E6A6E560EE82EFED76A2E7E
:100B3600FCD76B2EFAD7818C200E586E010E596E9B
:100B46002C0E5A6E060E5B6ECBEC13F0030EAD6EDA
:100B5600010E0001F425F46F000EF521F56F73EC1C
:100B660015F0E1EF06F0040E0001F419F511D8A412
:100B7600BFEF05F0C1EF05F0E3EF05F082B0C6EF79
:100B860005F0C8EF05F0E3EF05F0818A818E200EAF
:100B9600586E010E596E0B0E5A6E060E5B6ECBEC3E
:100BA60013F053EC12F0040EAD6E010E0001F425A5
:100BB600F46F000EF521F56F73EC15F0E1EF06F01A
:100BC600050E0001F419F511D8A4ECEF05F0EEEFCF
:100BD60005F015EF06F0819E819C819A030E6B6EDF
:100BE6008A0E6A6E560EE82EFED76A2EFCD76B2E3C
:100BF600FAD7818E818C200E586E010E596E140E16
:100C06005A6E060E5B6ECBEC13F0050EAD6E010E42
:100C16000001F425F46F000EF521F56F73EC15F065
:100C2600E1EF06F0060E0001F419F511D8A41EEF47
:100C360006F020EF06F04FEF06F082B625EF06F03D
:100C460027EF06F04FEF06F0819E819C030E6B6E38
:100C56008A0E6A6E560EE82EFED76A2EFCD76B2ECB
:100C6600FAD7818E818A200E586E010E596E330E88
:100C76005A6E060E5B6ECBEC13F053EC12F0060EBA
:100C8600AD6E010E0001F425F46F000EF521F56F2F
:100C960073EC15F0E1EF06F0070E0001F419F511FB
:100CA600D8A458EF06F05AEF06F07FEF06F0819EC3
:100CB600819A030E6B6E8A0E6A6E560EE82EFED76A
:100CC6006A2EFCD76B2EFAD7818C200E586E010E39
:100CD600596E2C0E5A6E060E5B6ECBEC13F0070E99
:100CE600AD6E010E0001F425F46F000EF521F56FCF
:100CF60073EC15F0E1EF06F0080E0001F419F5119A
:100D0600D8A488EF06F08AEF06F0ACEF06F082B0C2
:100D16008FEF06F091EF06F0ACEF06F0818E818A38
:100D2600200E586E010E596E0B0E5A6E060E5B6E35
:100D3600CBEC13F053EC12F0080EAD6E010E000171
:100D4600F425F46F000EF521F56F73EC15F0E1EF65
:100D560006F0090E0001F419F511D8A4B5EF06F056
:100D6600B7EF06F0E1EF06F0819E819A819C8190B3
:100D7600000EF56F000EF46F000EAD6E200E586E6D
:100D8600010E596E010E5A6E060E5B6ECBEC13F019
:100D960073EC15F0E1EF06F0E1EF06F0E1EF06F097
:100DA600E1EF06F0E1EF06F0E1EF06F0E1EF06F025
:100DB600E1EF06F0E1EF06F0E1EF06F012009DC06C
:100DC600B5F09EC0B6F09FC0B7F0A0C0B8F0A1C005
:100DD600B9F0A2C0BAF0A3C0BBF0A4C0BCF0000139
:100DE600BCBFF8EF06F0FBEF06F0010EFCEF06F0D5
:100DF600000EB36FB46BB351B411D8B405EF07F05E
:100E060007EF07F019EF07F0BC1FBB1FBA1FB91F8A
:100E1600B81FB71FB61FB56D000EB623B723B8238C
:100E2600B923BA23BB23BC2319EF07F0F1BF1EEF8A
:100E360007F020EF07F023EF07F0F29323EF07F018
:100E4600F1BF30EF07F0F15106E1F005D8B02EEF13
:100E560007F030EF07F036EF07F0000EB06F010E27
:100E6600AF6F3AEF07F0F0C0AFF0F1C0B0F0EEC0F0
:100E7600B1F0EFC0B2F0B351B411D8A445EF07F00A
:100E860047EF07F050EF07F0F2A54CEF07F04EEFF3
:100E960007F055EF07F050EF07F0B107D8A0B207FB
:100EA60055EF07F0000EBE6F1F0EBD6F000EBD257D
:100EB600D96E010EBE21DA6E000EDF6EE2EF07F08C
:100EC600BD07D8A0BE07000EBD25D96E010EBE21F6
:100ED600DA6EB5C080F0B6C081F0B7C082F0B8C097
:100EE60083F0B9C084F0BAC085F0BBC086F0BCC040
:100EF60087F00A0E886F000E896F000E8A6F000E4B
:100F06008B6F000E8C6F000E8D6F000E8E6F000EB5
:100F16008F6F82EC0DF080C0A5F081C0A6F082C074
:100F2600A7F083C0A8F084C0A9F085C0AAF086C047
:100F3600ABF087C0ACF0A5C092F0A7C093F0BFECB1
:100F460014F000019251300FDF6EAF07D8A0B00742
:100F5600B107D8A0B207B5C080F0B6C081F0B7C05F
:100F660082F0B8C083F0B9C084F0BAC085F0BBC0C7
:100F760086F0BCC087F00A0E886F000E896F000EDF
:100F86008A6F000E8B6F000E8C6F000E8D6F000E39
:100F96008E6F000E8F6FD1EC0BF080C0B5F081C064
:100FA600B6F082C0B7F083C0B8F084C0B9F085C08F
:100FB600BAF086C0BBF087C0BCF0E2EF07F00001D4
:100FC600BEBFEEEF07F0BE5108E1BD05D8A0EEEFBB
:100FD60007F0F0EF07F026EF08F0B551B611B7119C
:100FE600B811B911BA11BB11BC11D8A4FDEF07F0A5
:100FF600FFEF07F063EF07F0B0BF0CEF08F0B0515A
:1010060006E1AF05D8B00AEF08F00CEF08F063EF81
:1010160007F0B2BF17EF08F0B25108E1B105D8A04A
:1010260017EF08F019EF08F026EF08F0F2B31EEFFD
:1010360008F020EF08F063EF07F026EF08F026EF40
:1010460008F026EF08F0B351B411D8A42DEF08F03C
:101056002FEF08F038EF08F0F2A534EF08F036EF7E
:1010660008F05AEF08F038EF08F0BD07D8A0BE0721
:10107600B351B411D8A442EF08F044EF08F04AEF98
:1010860008F0000EAE6F2B0EAD6F50EF08F0000E9D
:10109600AE6F2D0EAD6F50EF08F0000EBD25D96E68
:1010A600010EBE21DA6EADC0DFFF5AEF08F09BC01D
:1010B60090F09CC091F0000EBD25926F010EBE21EE
:1010C600936FB1C094F0B2C095F034EC11F090C0BB
:1010D6009BF091C09CF070EF08F012001EC036F035
:1010E6001FC037F020C038F021C039F022C03AF0D6
:1010F60023C03BF024C03CF025C03DF03DBE86EF4A
:1011060008F089EF08F0010E8AEF08F0000E346E41
:10111600356A34503510D8B493EF08F095EF08F0DF
:10112600A7EF08F03D1E3C1E3B1E3A1E391E381E18
:10113600371E366C000E3722382239223A223B22DD
:101146003C223D22A7EF08F00001F1BFADEF08F009
:10115600AFEF08F0B2EF08F0F293B2EF08F0F1BF8C
:10116600BFEF08F0F15106E1F005D8B0BDEF08F089
:10117600BFEF08F0C5EF08F0000E316E010E306EBD
:10118600C9EF08F0F0C030F0F1C031F0EEC032F037
:10119600EFC033F034503510D8A4D4EF08F0D6EFB2
:1011A60008F0DFEF08F0F2A5DBEF08F0DDEF08F05E
:1011B600E4EF08F0DFEF08F03206D8A03306E4EFDC
:1011C60008F0000E3F6E1F0E3E6E000E3E24D96ED6
:1011D600010E3F20DA6E000EDF6E70EF09F03E065C
:1011E600D8A03F06000E3E24D96E010E3F20DA6ECF
:1011F60036C001F037C002F038C003F039C004F041
:101206003AC005F03BC006F03CC007F03DC008F010
:101216000A0E096E000E0A6E000E0B6E000E0C6EA4
:10122600000E0D6E000E0E6E000E0F6E000E106E8E
:1012360049EC0EF001C026F002C027F003C028F0EA
:1012460004C029F005C02AF006C02BF007C02CF018
:1012560008C02DF026C013F028C014F0E2EC14F0FC
:101266001350300FDF6E3006D8A031063206D8A0F4
:10127600330636C001F037C002F038C003F039C07B
:1012860004F03AC005F03BC006F03CC007F03DC094
:1012960008F00A0E096E000E0A6E000E0B6E000EA6
:1012A6000C6E000E0D6E000E0E6E000E0F6E000E12
:1012B600106EAAEC0CF001C036F002C037F003C085
:1012C60038F004C039F005C03AF006C03BF007C05C
:1012D6003CF008C03DF070EF09F03FBE7BEF09F02F
:1012E6003F5008E13E04D8A07BEF09F07DEF09F0FE
:1012F600B4EF09F036503710381039103A103B1059
:101306003C103D10D8A48AEF09F08CEF09F0F2EFFB
:1013160008F031BE99EF09F0315006E13004D8B03B
:1013260097EF09F099EF09F0F2EF08F033BEA4EF5A
:1013360009F0335008E13204D8A0A4EF09F0A6EF73
:1013460009F0B4EF09F00001F2B3ACEF09F0AEEF2B
:1013560009F0F2EF08F0B4EF09F0B4EF09F0B4EFDA
:1013660009F034503510D8A4BBEF09F0BDEF09F0F1
:10137600C7EF09F00001F2A5C3EF09F0C5EF09F0C8
:10138600E9EF09F0C7EF09F03E06D8A03F06345052
:101396003510D8A4D1EF09F0D3EF09F0D9EF09F051
:1013A600000E2F6E2B0E2E6EDFEF09F0000E2F6E45
:1013B6002D0E2E6EDFEF09F0000E3E24D96E010EC3
:1013C6003F20DA6E2EC0DFFFE9EF09F01CC011F0F6
:1013D6001DC012F0000E3E24136E010E3F20146E47
:1013E60032C015F033C016F0A1EC11F011C01CF09C
:1013F60012C01DF0FFEF09F01200C1C0D9FFC2C034
:10140600DAFFDECFF6FFDDCFF7FF0800F550250A3D
:10141600D8A410EF0AF012EF0AF0C9EF0AF0C1C023
:10142600D9FFC2C0DAFFDE2A000EDD22000E00015F
:10143600EF6F000EEE6FEEC0F2F0EFC0F3F0F06962
:10144600F169C1C0D9FFC2C0DAFFDECFF6FFDDCF3A
:10145600F7FF0800F550640AD8B434EF0AF036EF07
:101466000AF04AEF0AF0C1C0D9FFC2C0DAFFDECFE8
:10147600F6FFDDCFF7FF0800F550690AD8A446EF5E
:101486000AF048EF0AF08CEF0AF04AEF0AF0C1C002
:10149600D9FFC2C0DAFFDE2A000EDD22C3C0D9FFA3
:1014A600C4C0DAFFDFCFC5F0020EDE26DFCFC6F0FE
:1014B600000EDD22C5C0D9FFC6C0DAFFDECFC7F0F9
:1014C600DDCFC8F0000EC8BFFF0EC96FCA6FCB6F65
:1014D600CC6FCD6FCE6FBFC09BF0C0C09CF0C7C0B5
:1014E6009DF0C8C09EF0C9C09FF0CAC0A0F0CBC096
:1014F600A1F0CCC0A2F0CDC0A3F0CEC0A4F0E2EC27
:1015060006F09BC0BFF09CC0C0F0EAEF0AF0EAEF1D
:101516000AF0C1C0D9FFC2C0DAFFDECFF6FFDDCFC9
:10152600F7FF0800F550250AD8A49CEF0AF09EEFB5
:101536000AF0B9EF0AF0C1C0D9FFC2C0DAFFDE2A4D
:10154600000EDD22000E0001816F250E806FBFC0E8
:1015560082F0C0C083F054EC10F0000E0001C06FA2
:10156600010EBF6FEAEF0AF0EAEF0AF0C1C0D9FF39
:10157600C2C0DAFFDE2A000EDD22000E0001C06FB7
:10158600000EBF6FEAEF0AF0EAEF0AF0C1C0D9FF1A
:10159600C2C0DAFFDECFF6FFDDCFF7FF0800F55059
:1015A6000001806F816BBFC082F0C0C083F054EC35
:1015B60010F0C1C0D9FFC2C0DAFFDE2A000EDD225C
:1015C600000E0001C06F010EBF6FEAEF0AF01200B5
:1015D60042C0D9FF43C0DAFFDECFF6FFDDCFF7FF0B
:1015E6000800F550250AD8A4FBEF0AF0FDEF0AF033
:1015F600B1EF0BF042C0D9FF43C0DAFFDE2A000E7E
:10160600DD22000E0001EF6F000EEE6FEEC0F2F06D
:10161600EFC0F3F0F069F16942C0D9FF43C0DAFFC9
:10162600DECFF6FFDDCFF7FF0800F550640AD8B429
:101636001FEF0BF021EF0BF035EF0BF042C0D9FF97
:1016460043C0DAFFDECFF6FFDDCFF7FF0800F55027
:10165600690AD8A431EF0BF033EF0BF077EF0BF0FC
:1016660035EF0BF042C0D9FF43C0DAFFDE2A000E89
:10167600DD2244C0D9FF45C0DAFFDFCF46F0020EB7
:10168600DE26DFCF47F0000EDD2246C0D9FF47C079
:10169600DAFFDECF48F0DDCF49F0000E49BEFF0E7F
:1016A6004A6E4B6E4C6E4D6E4E6E4F6E40C01CF0C9
:1016B60041C01DF048C01EF049C01FF04AC020F0CE
:1016C6004BC021F04CC022F04DC023F04EC024F098
:1016D6004FC025F071EC08F01CC040F01DC041F071
:1016E600D0EF0BF0D0EF0BF042C0D9FF43C0DAFFCA
:1016F600DECFF6FFDDCFF7FF0800F550250AD8A4A8
:1017060087EF0BF089EF0BF0A2EF0BF042C0D9FF89
:1017160043C0DAFFDE2A000EDD22000E026E250E21
:10172600016E40C003F041C004F0C5EC10F0000E9D
:10173600416E010E406ED0EF0BF0D0EF0BF042C0C1
:10174600D9FF43C0DAFFDE2A000EDD22000E416E0D
:10175600000E406ED0EF0BF0D0EF0BF042C0D9FF79
:1017660043C0DAFFDECFF6FFDDCFF7FF0800F55006
:10177600016E026A40C003F041C004F0C5EC10F0EF
:1017860042C0D9FF43C0DAFFDE2A000EDD22000E7A
:10179600416E010E406ED0EF0BF01200000E0001FC
:1017A600916F8FBFDBEF0BF0D9EF0BF0EFEF0BF084
:1017B6008F1F8E1F8D1F8C1F8B1F8A1F891F886D81
:1017C600000E89238A238B238C238D238E238F233C
:1017D600010E916FEFEF0BF087BFF6EF0BF0F4EF12
:1017E6000BF00AEF0CF0871F861F851F841F831FCF
:1017F600821F811F806D000E812382238323842311
:10180600852386238723010E911B0AEF0CF020EE19
:1018160092F0070EDE6AE806FDE2885189118A1108
:101826008B118C118D118E118F11D8B41DEF0CF008
:101836001FEF0CF07DEF0CF0010E906F2FEF0CF008
:10184600D890883789378A378B378C378D378E37DC
:101856008F37902B2FEF0CF08FAF34EF0CF036EF65
:101866000CF023EF0CF03AEF0CF03AEF0CF0D890B6
:1018760092379337943795379637973798379937FE
:101886008851805D895181598A5182598B5183597A
:101896008C5184598D5185598E5186598F5187594E
:1018A600D8A058EF0CF05AEF0CF06DEF0CF0885101
:1018B600805F8951815B8A51825B8B51835B8C513E
:1018C600845B8D51855B8E51865B8F51875B9281E0
:1018D6006DEF0CF0D8908F338E338D338C338B3382
:1018E6008A3389338833902F3AEF0CF07DEF0CF072
:1018F6007DEF0CF09151D8B483EF0CF085EF0CF02E
:1019060097EF0CF0991F981F971F961F951F941F0E
:10191600931F926D000E932394239523962397236A
:101926009823992397EF0CF092C080F093C081F032
:1019360094C082F095C083F096C084F097C085F07D
:1019460098C086F099C087F0A9EF0CF01200000E3F
:10195600126E10BEB3EF0CF0B1EF0CF0C7EF0CF047
:10196600101E0F1E0E1E0D1E0C1E0B1E0A1E096CCF
:10197600000E0A220B220C220D220E220F2210220A
:10198600010E126EC7EF0CF008BECEEF0CF0CCEFD6
:101996000CF0E2EF0CF0081E071E061E051E041EC4
:1019A600031E021E016C000E0222032204220522DF
:1019B600062207220822010E121AE2EF0CF020EE90
:1019C60013F0070EDE6AE806FDE209500A100B1056
:1019D6000C100D100E100F101010D8B4F5EF0CF0FF
:1019E600F7EF0CF055EF0DF0010E116E07EF0DF04D
:1019F600D89009360A360B360C360D360E360F36AB
:101A06001036112A07EF0DF010AE0CEF0DF00EEFA9
:101A16000DF0FBEF0CF012EF0DF012EF0DF0D89079
:101A260013361436153616361736183619361A364C
:101A36000950015C0A5002580B5003580C500458C8
:101A46000D5005580E5006580F500758105008589C
:101A5600D8A030EF0DF032EF0DF045EF0DF0095044
:101A6600015E0A50025A0B50035A0C50045A0D508C
:101A7600055A0E50065A0F50075A1050085A13802E
:101A860045EF0DF0D89010320F320E320D320C3277
:101A96000B320A320932112E12EF0DF055EF0DF00E
:101AA60055EF0DF01250D8B45BEF0DF05DEF0DF071
:101AB6006FEF0DF01A1E191E181E171E161E151E84
:101AC600141E136C000E1422152216221722182239
:101AD60019221A226FEF0DF013C001F014C002F0A4
:101AE60015C003F016C004F017C005F018C006F0C4
:101AF60019C007F01AC008F081EF0DF01200000EB1
:101B06000001916F87BF8CEF0DF08AEF0DF0A0EF0B
:101B16000DF0871F861F851F841F831F821F811F4D
:101B2600806D000E812382238323842385238623CD
:101B36008723010E916FA0EF0DF08FBFA7EF0DF079
:101B4600A5EF0DF0B9EF0DF08F1F8E1F8D1F8C1FA7
:101B56008B1F8A1F891F886D000E89238A238B237A
:101B66008C238D238E238F23B9EF0DF08851891195
:101B76008A118B118C118D118E118F11D8B4C6EF6D
:101B86000DF0C8EF0DF01CEF0EF0010E906FD8EFC0
:101B96000DF0D890883789378A378B378C378D3751
:101BA6008E378F37902BD8EF0DF08FAFDDEF0DF01E
:101BB600DFEF0DF0CCEF0DF0E3EF0DF0E3EF0DF0FE
:101BC6008851805D895181598A5182598B51835937
:101BD6008C5184598D5185598E5186598F5187590B
:101BE600D8A0F8EF0DF0FAEF0DF00CEF0EF08851DB
:101BF600805F8951815B8A51825B8B51835B8C51FB
:101C0600845B8D51855B8E51865B8F51875B0CEFB4
:101C16000EF0D8908F338E338D338C338B338A33DB
:101C260089338833902FE3EF0DF01CEF0EF01CEF95
:101C36000EF09151D8B422EF0EF024EF0EF036EFED
:101C46000EF0871F861F851F841F831F821F811F1B
:101C5600806D000E8123822383238423852386239C
:101C6600872336EF0EF080C080F081C081F082C0FD
:101C760082F083C083F084C084F085C085F086C07E
:101C860086F087C087F048EF0EF01200000E126E45
:101C960008BE52EF0EF050EF0EF066EF0EF0081E83
:101CA600071E061E051E041E031E021E016C000EE4
:101CB6000222032204220522062207220822010EFE
:101CC600126E66EF0EF010BE6DEF0EF06BEF0EF0BB
:101CD6007FEF0EF0101E0F1E0E1E0D1E0C1E0B1E8D
:101CE6000A1E096C000E0A220B220C220D220E225D
:101CF6000F2210227FEF0EF009500A100B100C1065
:101D06000D100E100F101010D8B48CEF0EF08EEFD1
:101D16000EF0E2EF0EF0010E116E9EEF0EF0D8906F
:101D260009360A360B360C360D360E360F36103699
:101D3600112A9EEF0EF010AEA3EF0EF0A5EF0EF0F7
:101D460092EF0EF0A9EF0EF0A9EF0EF00950015C2C
:101D56000A5002580B5003580C5004580D500558A1
:101D66000E5006580F50075810500858D8A0BEEF0E
:101D76000EF0C0EF0EF0D2EF0EF00950015E0A50E1
:101D8600025A0B50035A0C50045A0D50055A0E5065
:101D9600065A0F50075A1050085AD2EF0EF0D89034
:101DA60010320F320E320D320C320B320A32093239
:101DB600112EA9EF0EF0E2EF0EF0E2EF0EF0125048
:101DC600D8B4E8EF0EF0EAEF0EF0FCEF0EF0081EC6
:101DD600071E061E051E041E031E021E016C000EB3
:101DE6000222032204220522062207220822FCEFF1
:101DF6000EF001C001F002C002F003C003F004C0FF
:101E060004F005C005F006C006F007C007F008C0DC
:101E160008F00EEF0FF012000600E1CF6CF0E2CFF3
:101E26006DF0D9CF6EF0DACF6FF0F6CF70F0F7CF56
:101E360071F0F8CF72F0F5CF73F09EAA25EF0FF090
:101E460027EF0FF0A2EF0FF09E9A540EAE18D8A40B
:101E56002FEF0FF031EF0FF044EF0FF037EF0FF0E9
:101E660037EF0FF037EF0FF0540EAE18D8B43EEF41
:101E76000FF040EF0FF037EF0FF0A2EF0FF0A2EFE9
:101E86000FF0510EAE18D8A44BEF0FF04DEF0FF038
:101E960051EF0FF00AEC05F0A2EF0FF0430EAE186B
:101EA600D8A458EF0FF05AEF0FF05EEF0FF00AECE0
:101EB60005F0A2EF0FF04C0EAE18D8A465EF0FF0A8
:101EC60067EF0FF070EF0FF0000E0001F56F010ED7
:101ED600F46F0AEC05F0A2EF0FF0440EAE18D8A48A
:101EE60077EF0FF079EF0FF082EF0FF0000E0001A1
:101EF600F56F090EF46F0AEC05F0A2EF0FF0410E34
:101F0600AE18D8A489EF0FF08BEF0FF0A2EF0FF009
:101F1600010E0001F425F46F000EF521F56F0AECB1
:101F260005F0A2EF0FF0A2EF0FF0A2EF0FF0A2EF75
:101F36000FF0A2EF0FF0A2EF0FF0A2EF0FF073C0B9
:101F4600F5FF72C0F8FF71C0F7FF70C0F6FF6FC0F3
:101F5600DAFF6EC0D9FF6DC0E2FF6CC0E1FF7C9274
:101F6600110004EC15F097EC12F0000E816E000ED5
:101F7600836E000E846E000ED76E060ED66E23ECB0
:101F860003F0C6EF0FF082B2CBEF0FF0CDEF0FF0FC
:101F960005EF10F0070E0001EB6F7D0EE82EFED761
:101FA600EB2FFCD782B2DAEF0FF0DCEF0FF005EF84
:101FB60010F0E0EF0FF0E0EF0FF082A2E5EF0FF088
:101FC600E7EF0FF0E0EF0FF0E9EF0FF00001F4514B
:101FD600F511D8A4F1EF0FF0F3EF0FF0F9EF0FF0D2
:101FE600000EF56F010EF46FFFEF0FF0000EF56FA8
:101FF600000EF46FFFEF0FF023EC03F005EF10F087
:1020060005EF10F082B40AEF10F00CEF10F040EF7D
:1020160010F0070E0001EB6F7D0EE82EFED7EB2FBA
:10202600FCD782B419EF10F01BEF10F040EF10F060
:102036001FEF10F01FEF10F082A424EF10F026EF30
:1020460010F01FEF10F028EF10F00001F451F51119
:10205600D8B430EF10F032EF10F03AEF10F0010E76
:10206600F425F46F000EF521F56F3AEF10F023EC2E
:1020760003F040EF10F040EF10F00001F451F511BD
:10208600D8B448EF10F04AEF10F0C6EF0FF023EC8B
:1020960003F0C6EF0FF0C6EF0FF0C6EF0FF007EF35
:1020A60000F0000182518311D8B45CEF10F05EEFAE
:1020B60010F069EF10F082518311D8A465EF10F08B
:1020C60067EF10F06EEF10F069EF10F08051C4EC7E
:1020D60015F0C4EF10F0000120EE04F08251D9266D
:1020E6008351DA22DE50DE10D8B47CEF10F07EEF9A
:1020F60010F09BEF10F020EE04F08251D9268351A8
:10210600DA2210EE02F08251E1268351E222DE50FD
:10211600E65CE650800A886FDE50800A8859D8B09F
:1021260097EF10F099EF10F0C4EF10F09BEF10F05E
:1021360020EE02F08251D9268351DA22DECF84F0D6
:10214600DDCF85F082C0D9FF83C0DAFFDECF86F00F
:10215600DDCF87F084518625D96E85518721DA6EC9
:1021660080C0DFFF20EE02F08251D9268351DA22A9
:10217600DE2A000EDD22C4EF10F0C4EF10F0C4EF2B
:1021860010F0120003500410D8B4CCEF10F0CEEFCC
:1021960010F0D9EF10F003500410D8A4D5EF10F0CA
:1021A600D7EF10F0DEEF10F0D9EF10F00150C5ECCC
:1021B60015F033EF11F020EE04F00350D926045049
:1021C600DA22DE50DE10D8B4EBEF10F0EDEF10F0AF
:1021D6000AEF11F020EE04F00350D9260450DA225B
:1021E60010EE02F00350E1260450E222DE50E65CD7
:1021F600E650800A096EDE50800A0958D8B006EF0C
:1022060011F008EF11F033EF11F00AEF11F020EEA4
:1022160002F00350D9260450DA22DECF05F0DDCFD6
:1022260006F003C0D9FF04C0DAFFDECF07F0DDCF2A
:1022360008F005500724D96E06500820DA6E01C052
:10224600DFFF20EE02F00350D9260450DA22DE2A00
:10225600000EDD2233EF11F033EF11F033EF11F002
:1022660012000001F2A13AEF11F03CEF11F048EF35
:1022760011F092C089F093C08AF090C08BF091C0A3
:102286008CF04CEC14F048EF11F0000195BF4EEFC6
:1022960011F050EF11F056EF11F094C099F095C07F
:1022A6009AF05AEF11F0000E9A6F000E996F000E19
:1022B600986F000E976F6FEF11F0000E816F200E72
:1022C600806F90C082F091C083F054EC10F0000152
:1022D600974B982B6FEF11F09951975D9851800AA3
:1022E600966F9A51800A9659D8A07CEF11F07EEF2E
:1022F60011F060EF11F0F2B183EF11F085EF11F0FC
:1023060091EF11F092C089F093C08AF090C08BF0E3
:1023160091C08CF04CEC14F091EF11F092C080F06B
:1023260093C081F0F8EC13F0000199518025906F6D
:102336009A518121916FA0EF11F012000001F2A1D4
:10234600A7EF11F0A9EF11F0B5EF11F013C00AF0E5
:1023560014C00BF011C00CF012C00DF074EC14F0A8
:10236600B5EF11F016BEBAEF11F0BCEF11F0C2EFE7
:1023760011F015C01AF016C01BF0C6EF11F0000ED2
:102386001B6E000E1A6E000E196E000E186EDAEF36
:1023960011F0000E026E200E016E11C003F012C085
:1023A60004F0C5EC10F0184A192ADAEF11F01A50A9
:1023B600185C1950800A176E1B50800A1758D8A04F
:1023C600E7EF11F0E9EF11F0CCEF11F00001F2B1F7
:1023D600EFEF11F0F1EF11F0FDEF11F013C00AF07D
:1023E60014C00BF011C00CF012C00DF074EC14F018
:1023F600FDEF11F013C001F014C002F023EC14F04D
:102406001A500124116E1B500220126E0BEF12F0AF
:102416001200000E0001F76F050EF66FF7BF18EFFA
:1024260012F016EF12F01CEF12F052EF12F052EF0C
:1024360012F0F451F511D8B423EF12F025EF12F093
:1024460045EF12F0060E0001E86F130EE76FAD0EB2
:10245600E82EFED7E72FFCD7E82FFAD700D0F80EE4
:102466000001D76F000ED86F410ED96F060EDA6FD6
:10247600F6C0DBF0F7C0DCF09CEC13F09AEC14F03D
:1024860045EF12F00001F607D8A0F707F7BF50EFA7
:1024960012F04EEF12F01CEF12F052EF12F0120093
:1024A600000E0001F76F050EF66FF7BF5FEF12F033
:1024B6005DEF12F063EF12F096EF12F096EF12F066
:1024C600F451F511D8B46AEF12F06CEF12F089EFFF
:1024D60012F0060E696E130E686EAE0EE82EFED76B
:1024E600682EFCD7692EFAD7F80E586E000E596E74
:1024F600410E5A6E060E5B6EF6C05CF0F7C05DF0DC
:10250600CBEC13F025EC15F089EF12F00001F6077D
:10251600D8A0F707F7BF94EF12F092EF12F063EF2F
:1025260012F096EF12F01200030E0001836F8D90E9
:102536008D92140E0001826F790EE82EFED7822F3F
:10254600FCD700D083C083FF8D828D92070E0001D9
:10255600826F7D0EE82EFED7822FFCD78D828D925C
:10256600420EE82EFED700D08D828D92420EE82EC6
:10257600FED700D0020E836E8D828D92380E9FECB0
:1025860015F0060E9FEC15F00C0E9FEC15F085EC81
:1025960015F012008D80E7EF12F081C0F6FF82C0C1
:1025A600F7FFF86A050EF76403D00800F55005D06A
:1025B600F6CFE1FFF7CFE2FFE7509FEC15F0000101
:1025C600814B822BE7EF12F081C0F6FF82C0F7FF46
:1025D600F86A050EF76403D00800F55005D0F6CF6B
:1025E600E1FFF7CFE2FFE7500009D8A4FDEF12F0B4
:1025F600FFEF12F0D0EF12F001EF13F012008D8012
:102606001BEF13F002C0F6FF03C0F7FFF86A050ED2
:10261600F76403D00800F55005D0F6CFE1FFF7CFF9
:10262600E2FFE750AAEC15F0024A032A1BEF13F06B
:1026360002C0F6FF03C0F7FFF86A050EF76403D081
:102646000800F55005D0F6CFE1FFF7CFE2FFE750DF
:102656000009D8A431EF13F033EF13F005EF13F0B0
:1026660035EF13F01200D1C0D5F0D2C0D6F0000E6F
:102676000001ED6F000EEC6F56EF13F0CFC0BFF008
:10268600D0C0C0F0D50EC16F000EC26FD3C0C3F06C
:10269600D4C0C4F000EC0AF00001BF51EC27C051D1
:1026A600ED2356EF13F0D5C0F6FFD6C0F7FF0800AE
:1026B600F5500009D8A462EF13F064EF13F041EF70
:1026C60013F0ECC0CFF0EDC0D0F0120052C056F0BF
:1026D60053C057F0000E0001ED6F000EEC6F89EF4E
:1026E60013F050C040F051C041F0560E426E000E3D
:1026F600436E54C044F055C045F0EBEC0AF0405030
:102706000001EC274150ED2389EF13F056C0F6FF88
:1027160057C0F7FF0800F5500009D8A495EF13F04D
:1027260097EF13F074EF13F0ECC050F0EDC051F0DA
:102736001200DB0E0001DF6F000EE06FD7C0E1F084
:10274600D8C0E2F0000EE46F000EE36F000EE66FF5
:10275600000EE56FE10ECF6F000ED06FD9C0D1F03D
:10276600DAC0D2F0DF0ED36F000ED46F36EC13F062
:10277600CFC0DDF0D0C0DEF00001E351D725D96E21
:10278600E451D821DA6E000EDF6ECAEF13F01200A4
:102796005C0E606E000E616E58C062F059C063F048
:1027A600000E656E000E646E000E676E000E666E9D
:1027B600620E506E000E516E5AC052F05BC053F05E
:1027C600600E546E000E556E69EC13F050C05EF04C
:1027D60051C05FF064505824D96E65505920DA6EA6
:1027E600000EDF6EF7EF13F0120080C084F081C098
:1027F60085F003EF14F00001804B812B03EF14F0FA
:1028060080C0D9FF81C0DAFFDF50D8A40DEF14F0E5
:102816000FEF14F0FEEF13F011EF14F084C082F006
:1028260085C083F00001821F831F824B832B80515A
:102836008225806F81518321816F22EF14F012006F
:1028460001C005F002C006F02DEF14F0014A022A7D
:102856002DEF14F001C0D9FF02C0DAFFDF50D8A473
:1028660037EF14F039EF14F029EF14F03BEF14F0C2
:1028760005C003F006C004F0031E041E034A042A22
:1028860001500324016E02500420026E4BEF14F037
:102896001200000E00018F6F000E8E6F61EF14F0B4
:1028A6008DC080F0816B8BC082F08CC083F054ECBD
:1028B60010F000018E4B8F2B61EF14F08E5189259D
:1028C600D96E8F518A21DA6EDF508D6F8D51D8A463
:1028D6006FEF14F071EF14F053EF14F073EF14F080
:1028E6001200000E106E000E0F6E87EF14F00EC071
:1028F60001F0026A0CC003F00DC004F0C5EC10F044
:102906000F4A102A87EF14F00F500A24D96E105080
:102916000B20DA6EDF500E6E0E50D8A495EF14F031
:1029260097EF14F07AEF14F099EF14F0120085EC9B
:1029360015F0000EB4EC15F01D0E0001816F060EA9
:10294600826FCDEC12F0200E0001816F010E826FB6
:10295600CDEC12F0280EB4EC15F0250E0001816FB7
:10296600060E826FCDEC12F0F80E0001816F000E9C
:10297600826FCDEC12F01200000193BFCDEF14F080
:10298600935106E19205D8B0CBEF14F0CDEF14F0D9
:10299600DBEF14F092C094F093C095F0941F951F4E
:1029A600944B952B94C092F095C093F0E1EF14F000
:1029B60092C092F093C093F0E1EF14F0120014BEAF
:1029C600EFEF14F0145006E11304D8B0EDEF14F055
:1029D600EFEF14F0FDEF14F013C015F014C016F06D
:1029E600151E161E154A162A15C013F016C014F029
:1029F60003EF15F013C013F014C014F003EF15F035
:102A06001200DF0E926E000E936E9468000E956EA5
:102A16000C0E966E630ED36ED08EC00EF26EC30E83
:102A2600D56E010EC26E0E0EC16E940EC06E240ED1
:102A3600AC6E900EAB6E000EB86E190EAF6E9D8A20
:102A46009F8A120093EC15F0000EBDEC15F01D0EDA
:102A5600026E060E036E02EC13F0200E026E010EDD
:102A6600036E02EC13F0280EBDEC15F0250E026E77
:102A7600060E036E02EC13F0F80E026E000E036EE5
:102A860002EC13F0120001EE00F02F0EEE6AE806DB
:102A9600FDE100EEECF0110EEE6AE806FDE100EE57
:102AA60074F0080EEE6AE806FDE17C907C92000E5A
:102AB600F86E0001B4EF0FF085EC15F0000EB4ECE3
:102AC60015F01D0E0001816F060E826FCDEC12F01F
:102AD600200E0001816F010E826FCDEC12F0120004
:102AE60093EC15F0000EBDEC15F01D0E026E060EF1
:102AF600036E02EC13F0200E026E010E036E02EC62
:102B060013F012008D90010E9FEC15F0030E0001DC
:102B1600816F970EE82EFED7812FFCD700D01200CA
:102B26008D90010EAAEC15F0030E026E980EE82E9B
:102B3600FED7022EFCD712000001806FC80E00D00F
:102B4600E82EFDD780C083FF8D828D921200016E24
:102B5600C80E00D0E82EFDD701C083FF8D828D926E
:102B660012000001816F8D9000018151800F9FEC52
:102B760015F01200026E8D900250800FAAEC15F02F
:062B860012001200120013
:020000040020DA
:08000000FFFFFFFFFFFFFFFF00
:020000040030CA
:0E000000FF081F1EFF8181FF0FC00FE00F40A1
:00000001FF
